{
  "contractName": "EducationContract",
  "abi": [
    {
      "constant": true,
      "inputs": [
        {
          "internalType": "uint256",
          "name": "",
          "type": "uint256"
        }
      ],
      "name": "record",
      "outputs": [
        {
          "internalType": "string",
          "name": "record_id",
          "type": "string"
        },
        {
          "internalType": "string",
          "name": "record_name",
          "type": "string"
        },
        {
          "internalType": "string",
          "name": "description",
          "type": "string"
        },
        {
          "internalType": "string",
          "name": "timestamp",
          "type": "string"
        },
        {
          "internalType": "string",
          "name": "ipfsHash",
          "type": "string"
        }
      ],
      "payable": false,
      "stateMutability": "view",
      "type": "function"
    },
    {
      "constant": true,
      "inputs": [
        {
          "internalType": "address",
          "name": "",
          "type": "address"
        },
        {
          "internalType": "uint256",
          "name": "",
          "type": "uint256"
        }
      ],
      "name": "students",
      "outputs": [
        {
          "internalType": "string",
          "name": "record_id",
          "type": "string"
        },
        {
          "internalType": "string",
          "name": "record_name",
          "type": "string"
        },
        {
          "internalType": "string",
          "name": "description",
          "type": "string"
        },
        {
          "internalType": "string",
          "name": "timestamp",
          "type": "string"
        },
        {
          "internalType": "string",
          "name": "ipfsHash",
          "type": "string"
        }
      ],
      "payable": false,
      "stateMutability": "view",
      "type": "function"
    },
    {
      "constant": false,
      "inputs": [
        {
          "internalType": "string",
          "name": "_record_id",
          "type": "string"
        },
        {
          "internalType": "address",
          "name": "_student",
          "type": "address"
        },
        {
          "internalType": "string",
          "name": "_record_name",
          "type": "string"
        },
        {
          "internalType": "string",
          "name": "_description",
          "type": "string"
        },
        {
          "internalType": "string",
          "name": "_timestamp",
          "type": "string"
        },
        {
          "internalType": "string",
          "name": "_ipfsHash",
          "type": "string"
        }
      ],
      "name": "addReport",
      "outputs": [
        {
          "internalType": "uint256",
          "name": "",
          "type": "uint256"
        }
      ],
      "payable": false,
      "stateMutability": "nonpayable",
      "type": "function"
    },
    {
      "constant": true,
      "inputs": [
        {
          "internalType": "address",
          "name": "_id",
          "type": "address"
        }
      ],
      "name": "getAllrecordDetails",
      "outputs": [
        {
          "components": [
            {
              "internalType": "string",
              "name": "record_id",
              "type": "string"
            },
            {
              "internalType": "string",
              "name": "record_name",
              "type": "string"
            },
            {
              "internalType": "string",
              "name": "description",
              "type": "string"
            },
            {
              "internalType": "string",
              "name": "timestamp",
              "type": "string"
            },
            {
              "internalType": "string",
              "name": "ipfsHash",
              "type": "string"
            }
          ],
          "internalType": "struct EducationContract.RecordDetails[]",
          "name": "",
          "type": "tuple[]"
        }
      ],
      "payable": false,
      "stateMutability": "view",
      "type": "function"
    }
  ],
  "bytecode": "0x608060405234801561001057600080fd5b50611470806100206000396000f3fe608060405234801561001057600080fd5b5060043610610069576000357c0100000000000000000000000000000000000000000000000000000000900480631c0c44551461006e5780632c16cd8a1461009e5780632eb36154146100d257806358b88d4b14610102575b600080fd5b61008860048036036100839190810190610ed3565b610136565b60405161009591906111fe565b60405180910390f35b6100b860048036036100b39190810190611039565b6105c9565b6040516100c9959493929190611220565b60405180910390f35b6100ec60048036036100e79190810190610f38565b610904565b6040516100f99190611296565b60405180910390f35b61011c60048036036101179190810190610efc565b610a39565b60405161012d959493929190611220565b60405180910390f35b606080600160008473ffffffffffffffffffffffffffffffffffffffff1673ffffffffffffffffffffffffffffffffffffffff168152602001908152602001600020805490506040519080825280602002602001820160405280156101b557816020015b6101a2610d81565b81526020019060019003908161019a5790505b50905060008090505b600160008573ffffffffffffffffffffffffffffffffffffffff1673ffffffffffffffffffffffffffffffffffffffff168152602001908152602001600020805490508110156105bf576000600160008673ffffffffffffffffffffffffffffffffffffffff1673ffffffffffffffffffffffffffffffffffffffff168152602001908152602001600020828154811061025457fe5b90600052602060002090600502019050806040518060a0016040529081600082018054600181600116156101000203166002900480601f0160208091040260200160405190810160405280929190818152602001828054600181600116156101000203166002900480156103095780601f106102de57610100808354040283529160200191610309565b820191906000526020600020905b8154815290600101906020018083116102ec57829003601f168201915b50505050508152602001600182018054600181600116156101000203166002900480601f0160208091040260200160405190810160405280929190818152602001828054600181600116156101000203166002900480156103ab5780601f10610380576101008083540402835291602001916103ab565b820191906000526020600020905b81548152906001019060200180831161038e57829003601f168201915b50505050508152602001600282018054600181600116156101000203166002900480601f01602080910402602001604051908101604052809291908181526020018280546001816001161561010002031660029004801561044d5780601f106104225761010080835404028352916020019161044d565b820191906000526020600020905b81548152906001019060200180831161043057829003601f168201915b50505050508152602001600382018054600181600116156101000203166002900480601f0160208091040260200160405190810160405280929190818152602001828054600181600116156101000203166002900480156104ef5780601f106104c4576101008083540402835291602001916104ef565b820191906000526020600020905b8154815290600101906020018083116104d257829003601f168201915b50505050508152602001600482018054600181600116156101000203166002900480601f0160208091040260200160405190810160405280929190818152602001828054600181600116156101000203166002900480156105915780601f1061056657610100808354040283529160200191610591565b820191906000526020600020905b81548152906001019060200180831161057457829003601f168201915b5050505050815250508383815181106105a657fe5b60200260200101819052505080806001019150506101be565b5080915050919050565b600081815481106105d657fe5b9060005260206000209060050201600091509050806000018054600181600116156101000203166002900480601f0160208091040260200160405190810160405280929190818152602001828054600181600116156101000203166002900480156106825780601f1061065757610100808354040283529160200191610682565b820191906000526020600020905b81548152906001019060200180831161066557829003601f168201915b505050505090806001018054600181600116156101000203166002900480601f0160208091040260200160405190810160405280929190818152602001828054600181600116156101000203166002900480156107205780601f106106f557610100808354040283529160200191610720565b820191906000526020600020905b81548152906001019060200180831161070357829003601f168201915b505050505090806002018054600181600116156101000203166002900480601f0160208091040260200160405190810160405280929190818152602001828054600181600116156101000203166002900480156107be5780601f10610793576101008083540402835291602001916107be565b820191906000526020600020905b8154815290600101906020018083116107a157829003601f168201915b505050505090806003018054600181600116156101000203166002900480601f01602080910402602001604051908101604052809291908181526020018280546001816001161561010002031660029004801561085c5780601f106108315761010080835404028352916020019161085c565b820191906000526020600020905b81548152906001019060200180831161083f57829003601f168201915b505050505090806004018054600181600116156101000203166002900480601f0160208091040260200160405190810160405280929190818152602001828054600181600116156101000203166002900480156108fa5780601f106108cf576101008083540402835291602001916108fa565b820191906000526020600020905b8154815290600101906020018083116108dd57829003601f168201915b5050505050905085565b6000600160008773ffffffffffffffffffffffffffffffffffffffff1673ffffffffffffffffffffffffffffffffffffffff1681526020019081526020016000206040518060a00160405280898152602001878152602001868152602001858152602001848152509080600181540180825580915050906001820390600052602060002090600502016000909192909190915060008201518160000190805190602001906109b3929190610db0565b5060208201518160010190805190602001906109d0929190610db0565b5060408201518160020190805190602001906109ed929190610db0565b506060820151816003019080519060200190610a0a929190610db0565b506080820151816004019080519060200190610a27929190610db0565b50505050600190509695505050505050565b60016020528160005260406000208181548110610a5257fe5b906000526020600020906005020160009150915050806000018054600181600116156101000203166002900480601f016020809104026020016040519081016040528092919081815260200182805460018160011615610100020316600290048015610aff5780601f10610ad457610100808354040283529160200191610aff565b820191906000526020600020905b815481529060010190602001808311610ae257829003601f168201915b505050505090806001018054600181600116156101000203166002900480601f016020809104026020016040519081016040528092919081815260200182805460018160011615610100020316600290048015610b9d5780601f10610b7257610100808354040283529160200191610b9d565b820191906000526020600020905b815481529060010190602001808311610b8057829003601f168201915b505050505090806002018054600181600116156101000203166002900480601f016020809104026020016040519081016040528092919081815260200182805460018160011615610100020316600290048015610c3b5780601f10610c1057610100808354040283529160200191610c3b565b820191906000526020600020905b815481529060010190602001808311610c1e57829003601f168201915b505050505090806003018054600181600116156101000203166002900480601f016020809104026020016040519081016040528092919081815260200182805460018160011615610100020316600290048015610cd95780601f10610cae57610100808354040283529160200191610cd9565b820191906000526020600020905b815481529060010190602001808311610cbc57829003601f168201915b505050505090806004018054600181600116156101000203166002900480601f016020809104026020016040519081016040528092919081815260200182805460018160011615610100020316600290048015610d775780601f10610d4c57610100808354040283529160200191610d77565b820191906000526020600020905b815481529060010190602001808311610d5a57829003601f168201915b5050505050905085565b6040518060a0016040528060608152602001606081526020016060815260200160608152602001606081525090565b828054600181600116156101000203166002900490600052602060002090601f016020900481019282601f10610df157805160ff1916838001178555610e1f565b82800160010185558215610e1f579182015b82811115610e1e578251825591602001919060010190610e03565b5b509050610e2c9190610e30565b5090565b610e5291905b80821115610e4e576000816000905550600101610e36565b5090565b90565b600081359050610e64816113ff565b92915050565b600082601f830112610e7b57600080fd5b8135610e8e610e89826112de565b6112b1565b91508082526020830160208301858383011115610eaa57600080fd5b610eb58382846113ac565b50505092915050565b600081359050610ecd81611416565b92915050565b600060208284031215610ee557600080fd5b6000610ef384828501610e55565b91505092915050565b60008060408385031215610f0f57600080fd5b6000610f1d85828601610e55565b9250506020610f2e85828601610ebe565b9150509250929050565b60008060008060008060c08789031215610f5157600080fd5b600087013567ffffffffffffffff811115610f6b57600080fd5b610f7789828a01610e6a565b9650506020610f8889828a01610e55565b955050604087013567ffffffffffffffff811115610fa557600080fd5b610fb189828a01610e6a565b945050606087013567ffffffffffffffff811115610fce57600080fd5b610fda89828a01610e6a565b935050608087013567ffffffffffffffff811115610ff757600080fd5b61100389828a01610e6a565b92505060a087013567ffffffffffffffff81111561102057600080fd5b61102c89828a01610e6a565b9150509295509295509295565b60006020828403121561104b57600080fd5b600061105984828501610ebe565b91505092915050565b600061106e838361115d565b905092915050565b60006110818261131a565b61108b818561133d565b93508360208202850161109d8561130a565b8060005b858110156110d957848403895281516110ba8582611062565b94506110c583611330565b925060208a019950506001810190506110a1565b50829750879550505050505092915050565b60006110f682611325565b611100818561134e565b93506111108185602086016113bb565b611119816113ee565b840191505092915050565b600061112f82611325565b611139818561135f565b93506111498185602086016113bb565b611152816113ee565b840191505092915050565b600060a083016000830151848203600086015261117a82826110eb565b9150506020830151848203602086015261119482826110eb565b915050604083015184820360408601526111ae82826110eb565b915050606083015184820360608601526111c882826110eb565b915050608083015184820360808601526111e282826110eb565b9150508091505092915050565b6111f8816113a2565b82525050565b600060208201905081810360008301526112188184611076565b905092915050565b600060a082019050818103600083015261123a8188611124565b9050818103602083015261124e8187611124565b905081810360408301526112628186611124565b905081810360608301526112768185611124565b9050818103608083015261128a8184611124565b90509695505050505050565b60006020820190506112ab60008301846111ef565b92915050565b6000604051905081810181811067ffffffffffffffff821117156112d457600080fd5b8060405250919050565b600067ffffffffffffffff8211156112f557600080fd5b601f19601f8301169050602081019050919050565b6000819050602082019050919050565b600081519050919050565b600081519050919050565b6000602082019050919050565b600082825260208201905092915050565b600082825260208201905092915050565b600082825260208201905092915050565b600061137b82611382565b9050919050565b600073ffffffffffffffffffffffffffffffffffffffff82169050919050565b6000819050919050565b82818337600083830152505050565b60005b838110156113d95780820151818401526020810190506113be565b838111156113e8576000848401525b50505050565b6000601f19601f8301169050919050565b61140881611370565b811461141357600080fd5b50565b61141f816113a2565b811461142a57600080fd5b5056fea365627a7a72315820970db8d83ee5060318241d8d53103201200053f206293e389f78a79ddaa516436c6578706572696d656e74616cf564736f6c63430005100040",
  "source": "pragma solidity ^0.5.0;\r\npragma experimental ABIEncoderV2;\r\n\r\ncontract EducationContract {\r\n  struct RecordDetails {\r\n        string record_id;\r\n        string record_name;\r\n        string description;\r\n        string timestamp;\r\n        string ipfsHash;\r\n    }\r\n\r\n    RecordDetails[] public record;\r\n    mapping(address => RecordDetails[]) public students;\r\n\r\n    function addReport(string memory _record_id,address _student, string memory _record_name, string memory _description, string memory _timestamp, string memory _ipfsHash) public returns(uint) {\r\n\r\n        students[_student].push(RecordDetails(_record_id,_record_name,_description,_timestamp,_ipfsHash));\r\n        return 1;\r\n    }\r\n\r\n    //function getPatCount() public view returns(uint) {\r\n    //    return record.length;\r\n    //}\r\n\r\n\r\n    function getAllrecordDetails(address _id) public view returns (RecordDetails[] memory)\r\n    {\r\n        RecordDetails[] memory id = new RecordDetails[](students[_id].length);\r\n        for (uint i = 0; i < students[_id].length; i++) {\r\n            RecordDetails storage temprecord = students[_id][i];\r\n            id[i] = temprecord;\r\n        }\r\n        return id;\r\n    }\r\n\r\n    //function getPat(uint index) public view returns (uint, string memory, string memory,string memory, string memory)\r\n  //  {\r\n    //    return (record[index].record_id, record[index].record_name, record[index].description, record[index].timestamp, record[index].ipfsHash);\r\n  //  }\r\n\r\n    // function getPat2(uint index) public view returns(string memory, uint, string memory, string memory)\r\n    // {\r\n    //     return (record[index].par_rem, record[index].fee, record[index].message, record[index].ipfsHash);\r\n    // }\r\n}\r\n",
  "sourcePath": "C:\\Users\\vishwa\\Desktop\\e-certify\\root-folder\\contracts\\EducationContract.sol",
  "compiler": {
    "name": "solc",
    "version": "0.5.16+commit.9c3226ce.Emscripten.clang"
  },
  "schemaVersion": "3.4.14",
  "updatedAt": "2023-06-13T09:17:31.720Z",
  "devdoc": {
    "methods": {}
  },
  "userdoc": {
    "methods": {}
  }
}